:100000000C9434000C9446000C9446000C9446006A
:100010000C9446000C9446000C9446000C94460048
:100020000C9446000C9446000C9446000C94460038
:100030000C9446000C9446000C9448000C94460026
:100040000C9446000C9446000C9446000C94460018
:100050000C9446000C9446000C9446000C94460008
:100060000C9446000C94460011241FBECFEFD8E03C
:10007000DEBFCDBF21E0A0E0B1E001C01D92A13004
:10008000B207E1F70E949A000C9406010C9400005C
:100090001F920F920FB60F9211242F933F934F93FD
:1000A0008F939F93EF93FF93CF93DF93CDB7DEB7FB
:1000B00080910001883C18F580910001853658F444
:1000C00080910001282F30E044E1429FC001439F0E
:1000D000900D11240EC080910001882F90E028EC33
:1000E00030E0281B390B44E1429FC001439F900D33
:1000F000112428E830E0F9019183808307C0109231
:10010000000188E890E0FC011182108280910001DA
:100110008F5F809300010000DF91CF91FF91EF91FD
:100120009F918F914F913F912F910F900FBE0F9004
:100130001F901895CF93DF93CDB7DEB784E290E0A0
:10014000FC01208184E290E02260FC01208380E8B1
:1001500090E0FC01208180E890E02068FC01208391
:1001600080E890E0FC01208180E890E02260FC01C2
:10017000208381E890E028E1FC01208386E890E07C
:1001800020ED37E0FC013183208388E890E0FC011A
:100190001182108281E890E0FC01208181E890E0EA
:1001A0002260FC01208384E490E0FC01208184E44F
:1001B00090E02360FC01208385E490E0FC01208135
:1001C00085E490E02860FC01208387E490E02EE441
:1001D000FC0120838EE690E0FC0120818EE690E019
:1001E0002260FC01208385E490E0FC01208185E40D
:1001F00090E02560FC0120838FE590E0FC012081E8
:100200008FE590E02068FC012083FFCFF894FFCFBA
:00000001FF
