:100000000C9434000C943E000C9440000C943E0080
:100010000C943E000C943E000C943E000C943E0068
:100020000C943E000C943E000C943E000C943E0058
:100030000C943E000C943E000C943E000C943E0048
:100040000C943E000C943E000C943E000C943E0038
:100050000C943E000C943E000C943E000C943E0028
:100060000C943E000C943E0011241FBECFEFD8E04C
:10007000DEBFCDBF0E9464000C9484000C9400008D
:100080001F920F920FB60F9211242F938F939F936D
:10009000EF93FF93CF93DF93CDB7DEB785E290E088
:1000A000FC01208185E290E02260FC0120830000B9
:1000B000DF91CF91FF91EF919F918F912F910F90B1
:1000C0000FBE0F901F901895CF93DF93CDB7DEB77B
:1000D00084E290E0FC01208184E290E02260FC0157
:1000E00020838FE590E0FC0120818FE590E020687F
:1000F000FC0120838DE390E0FC0120818DE390E002
:0C0100002260FC012083FFCFF894FFCFA9
:00000001FF
