:100000000C9434000C943E000C943E000C943E0082
:100010000C943E000C943E000C943E000C943E0068
:100020000C943E000C943E000C943E000C943E0058
:100030000C943E000C943E000C943E000C943E0048
:100040000C943E000C943E000C943E000C943E0038
:100050000C943E000C943E000C943E000C943E0028
:100060000C943E000C943E0011241FBECFEFD8E04C
:10007000DEBFCDBF0E9440000C948A000C940000AB
:10008000CF93DF9300D000D000D00F92CDB7DEB772
:1000900019821A8284E290E02FE0FC01208389E239
:1000A00090E0FC01808188708F838981882379F5B5
:1000B0008F81882361F180E091E7A2E0B0E08B833B
:1000C0009C83AD83BE838B819C81AD81BE81019772
:1000D000A109B1098B839C83AD83BE838B819C81F5
:1000E000AD81BE81892B8A2B8B2B69F785E290E04D
:1000F000FC018081982F907F8A8121E0280F2A833C
:100100008F70292F282B85E290E0FC0120838F81BE
:080110008983C5CFF894FFCFED
:00000001FF
