:100000000C9434000C943E000C943E000C943E0082
:100010000C943E000C943E000C943E000C943E0068
:100020000C943E000C943E000C943E000C943E0058
:100030000C943E000C943E000C943E000C943E0048
:100040000C943E000C943E000C943E000C943E0038
:100050000C943E000C943E000C943E000C943E0028
:100060000C943E000C943E0011241FBECFEFD8E04C
:10007000DEBFCDBF0E9440000C9473000C940000C2
:10008000CF93DF9300D000D0CDB7DEB784E290E00D
:1000900028E0FC01208380E092EEA4E0B0E08983B8
:1000A0009A83AB83BC8301C0000089819A81AB81B4
:1000B000BC810197A109B10989839A83AB83BC8371
:1000C00089819A81AB81BC81892B8A2B8B2B61F72B
:1000D00085E290E0FC01308185E290E028E0232772
:0A00E000FC012083D8CFF894FFCF75
:00000001FF
