:100000000C9434000C9449000C9449000C94490061
:100010000C9449000C9449000C9449000C9449003C
:100020000C9449000C9449000C9449000C94A500D0
:100030000C9449000C9449000C9449000C9449001C
:100040000C9449000C9449000C9449000C9449000C
:100050000C9449000C9449000C9449000C944900FC
:100060000C9449000C94490011241FBECFEFD8E036
:10007000DEBFCDBF11E0A0E0B1E0E2E3F2E002C0FC
:1000800005900D92A031B107D9F70E94E5000C94BC
:1000900017010C940000CF93DF93CDB7DEB784EC4B
:1000A00090E0FC01208184EC90E02860FC0120833A
:1000B00081EC90E0FC01208181EC90E02860FC0163
:1000C000208382EC90E026E0FC0120830000DF9199
:1000D000CF910895CF93DF930F92CDB7DEB7898389
:1000E00086EC90E02981FC01208300000F90DF91D5
:1000F000CF910895CF93DF9300D0CDB7DEB79A8329
:10010000898316C0000080EC90E0FC018081882F7C
:1001100090E080729927892BB1F389819A81FC0143
:1001200080810E946A0089819A8101969A838983DD
:1001300089819A81FC018081882321F700000000D9
:100140000F900F90DF91CF9108951F920F920FB6ED
:100150000F9211242F933F934F935F936F937F934D
:100160008F939F93AF93BF93EF93FF93CF93DF93BF
:10017000CDB7DEB72F97DEBFCDBF2FE0E0E0F1E0D7
:10018000CE010196DC0101900D922A95E1F7CE0196
:1001900001960E947A0000002F960FB6F894DEBFF9
:1001A0000FBECDBFDF91CF91FF91EF91BF91AF9186
:1001B0009F918F917F916F915F914F913F912F917F
:1001C0000F900FBE0F901F901895CF93DF93CDB770
:1001D000DEB70E944B008FE590E0FC0120818FE5A7
:1001E00090E02068FC0120838FE690E0FC012081F4
:1001F0008FE690E02260FC01208381E890E0FC0122
:10020000208181E890E02860FC01208388E890E06C
:1002100020E13AE7FC013183208381E890E0FC0192
:10022000208181E890E02560FC012083FFCFF894D5
:02023000FFCFFE
:1002320048656C6C6F20576F726C64210D0A000068
:00000001FF
