:100000000C9434000C943E000C943E000C943E0082
:100010000C943E000C943E000C943E000C943E0068
:100020000C943E000C943E000C943E000C943E0058
:100030000C943E000C943E000C943E000C943E0048
:100040000C943E000C943E000C943E000C943E0038
:100050000C943E000C943E000C943E000C943E0028
:100060000C943E000C943E0011241FBECFEFD8E04C
:10007000DEBFCDBF0E9440000C947C000C940000B9
:10008000CF93DF93CDB7DEB784E290E0FC0120810F
:1000900084E290E02260FC01208380E890E0FC0193
:1000A000208180E890E02068FC01208380E890E0D7
:1000B000FC01208180E890E02260FC01208381E83F
:1000C00090E028E1FC01208386E890E023E234EF11
:1000D000FC013183208388E890E029E638E1FC01C7
:1000E0003183208381E890E0FC01208181E890E069
:0C00F0002460FC012083FFCFF894FFCFB8
:00000001FF
