:100000000C9434000C943E000C943E000C943E0082
:100010000C943E000C943E000C943E000C943E0068
:100020000C943E000C943E000C943E000C943E0058
:100030000C943E000C943E000C943E000C943E0048
:100040000C943E000C943E000C943E000C943E0038
:100050000C943E000C943E000C943E000C943E0028
:100060000C943E000C943E0011241FBECFEFD8E04C
:10007000DEBFCDBF0E9479000C9484000C94000078
:10008000CF93DF93CDB7DEB784EC90E028E0FC019E
:10009000208381EC90E028E1FC01208382EC90E059
:1000A00026E0FC0120830000DF91CF910895CF93DB
:1000B000DF930F92CDB7DEB7898386EC90E029817C
:1000C000FC01208300000F90DF91CF910895CF9322
:1000D000DF93CDB7DEB7000080EC90E0FC018081BB
:1000E0008823D4F786EC90E0FC018081DF91CF91EA
:1000F0000895CF93DF93CDB7DEB70E9440000E94F2
:0C01000067000E945700FBCFF894FFCF6F
:00000001FF
