:100000000C9434000C943E000C943E000C943E0082
:100010000C943E000C943E000C943E000C943E0068
:100020000C943E000C943E000C943E000C943E0058
:100030000C943E000C943E000C943E000C943E0048
:100040000C943E000C943E000C943E000C943E0038
:100050000C943E000C943E000C943E000C943E0028
:100060000C943E000C943E0011241FBECFEFD8E04C
:10007000DEBFCDBF0E9440000C945B000C940000DA
:10008000CF93DF93CDB7DEB784E290E028E0FC01A8
:10009000208389E290E0FC018081882F90E08870C5
:1000A0009927892B11F428E001C020E085E290E037
:0A00B000FC012083EECFF894FFCF8F
:00000001FF
