:100000000C9434000C943E000C943E000C943E0082
:100010000C943E000C943E000C943E000C943E0068
:100020000C943E000C943E000C943E000C946F0027
:100030000C943E000C943E000C943E000C943E0048
:100040000C943E000C943E000C943E000C943E0038
:100050000C943E000C943E000C943E000C943E0028
:100060000C943E000C943E0011241FBECFEFD8E04C
:10007000DEBFCDBF0E949B000C94CD000C9400000D
:10008000CF93DF93CDB7DEB784EC90E0FC01208105
:1000900084EC90E02860FC01208381EC90E0FC017E
:1000A000208181EC90E02860FC01208382EC90E0CC
:1000B00026E0FC0120830000DF91CF910895CF93CB
:1000C000DF930F92CDB7DEB7898386EC90E029816C
:1000D000FC01208300000F90DF91CF9108951F92C3
:1000E0000F920FB60F9211242F933F934F935F936C
:1000F0006F937F938F939F93AF93BF93EF93FF93F0
:10010000CF93DF93CDB7DEB78AE50E945F00000092
:10011000DF91CF91FF91EF91BF91AF919F918F911F
:100120007F916F915F914F913F912F910F900FBEF3
:100130000F901F901895CF93DF93CDB7DEB70E9435
:1001400040008FE590E0FC0120818FE590E0206881
:10015000FC0120838FE690E0FC0120818FE690E097
:100160002260FC01208381E890E0FC01208181E88D
:1001700090E02860FC01208388E890E023E234EFDF
:10018000FC013183208381E890E0FC01208181E83B
:0E01900090E02460FC012083FFCFF894FFCFA5
:00000001FF
