:100000000C9434000C943E000C943E000C943E0082
:100010000C943E000C943E000C943E000C943E0068
:100020000C943E000C943E000C943E000C943E0058
:100030000C943E000C943E000C943E000C943E0048
:100040000C943E000C943E000C943E000C943E0038
:100050000C943E000C943E000C943E000C943E0028
:100060000C943E000C943E0011241FBECFEFD8E04C
:10007000DEBFCDBF0E9440000C9481000C940000B4
:10008000CF93DF9300D000D000D0CDB7DEB7198278
:1000900084E290E028E0FC01208389E290E0FC010A
:1000A000808188708E838981882341F18E818823A5
:1000B00029F580E898E3A1E0B0E08A839B83AC83D4
:1000C000BD838A819B81AC81BD810197A109B10962
:1000D0008A839B83AC83BD838A819B81AC81BD81F4
:1000E000892B8A2B8B2B69F785E290E0FC0130810C
:1000F00085E290E028E02327FC0120838E8189831C
:06010000CCCFF894FFCF04
:00000001FF
