:100000000C9434000C9449000C9449000C94490061
:100010000C9449000C9449000C9449000C9449003C
:100020000C9449000C9449000C9449000C9449002C
:100030000C9449000C9449000C9449000C9449001C
:100040000C9449000C9449000C9449000C9449000C
:100050000C9449000C9449000C9449000C944900FC
:100060000C9449000C94490011241FBECFEFD8E036
:10007000DEBFCDBF11E0A0E0B1E0E6E7F6E002C0F0
:1000800005900D92A439B107D9F70E94C9020C94CA
:1000900039030C940000CF93DF93CDB7DEB784EC27
:1000A00090E028E0FC01208381EC90E028E1FC0155
:1000B000208382EC90E026E0FC0120830000DF91A9
:1000C000CF910895CF93DF930F92CDB7DEB7898399
:1000D00086EC90E02981FC01208300000F90DF91E5
:1000E000CF910895CF93DF9300D0CDB7DEB79A8339
:1000F000898316C0000080EC90E0FC018081882F8D
:1001000090E080729927892BB1F389819A81FC0153
:1001100080810E94620089819A8101969A838983F5
:1001200089819A81FC018081882321F700000000E9
:100130000F900F90DF91CF910895CF93DF93CDB7BC
:10014000DEB7000080EC90E0FC0180818823D4F7CA
:1001500086EC90E0FC018081DF91CF910895CF93F0
:10016000DF930F92CDB7DEB78983000080EC90E07B
:10017000FC018081882F90E080729927892BB1F350
:1001800086EC90E02981FC01208300000F90DF9134
:10019000CF910895CF92DF92EF92FF920F93CF937A
:1001A000DF93CDB7DEB72E970FB6F894DEBF0FBE44
:1001B000CDBF9B838A834C835D836E837F83398726
:1001C00028870A87CB86DC86ED86FE86000080ECD9
:1001D00090E0FC0180818823D4F786EC90E0FC015C
:1001E0008081898389818D3009F4E1C089818F37CD
:1001F00009F44FC08A85813021F48AE20E94AF0061
:1002000003C089810E94AF008C819D81AE81BF8136
:10021000181619061A061B06FCF48A819B8129818F
:10022000FC0120838C819D81AE81BF810197A10952
:10023000B1092A813B81F90131964B855C856D8539
:100240007E85288539856A017B010A85AC01BD015F
:10025000CF010E94CA00ABC08885998521E0FC01CE
:1002600020838C819D81AE81BF810197A109B10955
:100270004B855C856D857E8528853985EA81FB8186
:100280006A017B010A85AC01BD01CF010E94CA0051
:100290008EC04C815D816E817F818B859C85AD8513
:1002A000BE85481759076A077B07A9F44B855C850B
:1002B0006D857E85288539858C819D81AE81BF8144
:1002C000EA81FB816A017B010A85AC01BD01CF0196
:1002D0000E94CA006CC04C815D816E817F818B85DC
:1002E0009C85AD85BE85481759076A077B0794F53D
:1002F0008C819D81AE81BF81BB2364F188E00E9427
:10030000AF0080E20E94AF0088E00E94AF008A81C7
:100310009B810197FC01108288859985FC011082E0
:100320008C819D81AE81BF810196A11DB11D2A8165
:100330003B81F90131974B855C856D857E852885EC
:1003400039856A017B010A85AC01BD01CF010E949C
:10035000CA002DC088E00E94AF0080E20E94AF007A
:1003600088E00E94AF008C819D81AE81BF818F3F6C
:100370009F4FAF4FBF4F21F488859985FC011082B4
:100380008C819D81AE81BF810196A11DB11D4B85E0
:100390005C856D857E8528853985EA81FB816A01CA
:1003A0007B010A85AC01BD01CF010E94CA0000009B
:1003B0002E960FB6F894DEBF0FBECDBFDF91CF9162
:1003C0000F91FF90EF90DF90CF900895CF93DF9340
:1003D00000D000D000D0CDB7DEB79C838B837E8366
:1003E0006D831A8219820EC089819A819C012F5FC8
:1003F0003F4F3A8329839C018B819C81820F931FFD
:10040000FC01108229813A818D819E81281739074C
:100410005CF30000000026960FB6F894DEBF0FBE16
:10042000CDBFDF91CF910895CF92DF92EF92FF92EF
:100430000F931F93CF93DF93CDB7DEB72F970FB6F0
:10044000F894DEBF0FBECDBF9B838A837D836C8310
:100450002E833F83488759871B870A87CC86DD8692
:10046000EE86FF868A819B81FC01108219828E8133
:100470009F8101969C018C819D81B9010E94E601BA
:100480008C859D8501969C018A859B85B9010E947A
:10049000E60180E091E00E94720080E291E00E941B
:1004A00072004E815F81688579852A813B818E81CA
:1004B0009F81A885B985EC81FD816A017B0100E0FF
:1004C000AC01BD01CF010E94CA008A819B81FC0161
:1004D000808189838FE291E00E9472004C855D8566
:1004E0006E857F852A813B818C859D85AE85BF8504
:1004F000EA85FB856A017B0101E0AC01BD01CF010A
:100500000E94CA008981882329F08A819B8121E089
:10051000FC01208300002F960FB6F894DEBF0FBEBB
:10052000CDBFDF91CF911F910F91FF90EF90DF90A2
:10053000CF900895CF93DF9300D000D0CDB7DEB732
:100540009A8389837C836B8316C089819A81FC019D
:1005500020818B819C81FC018081281711F081E032
:1005600011C089819A8101969A8389838B819C81AC
:1005700001969C838B8389819A81FC0180818823E9
:1005800021F780E00F900F900F900F90DF91CF91A7
:100590000895CF92DF92EF92FF920F931F93CF9324
:1005A000DF93CDB7DEB76E970FB6F894DEBF0FBE00
:1005B000CDBF0E944B00198289E0E5E8F1E0DE0141
:1005C000139601900D928A95E1F785E0EEE8F1E04F
:1005D000DE011C9601900D928A95E1F736C09E01CE
:1005E000265E3F4FBE016F5E7F4FCE010296C12C4B
:1005F000D12C76016894C2F8890128E030E040E00F
:1006000050E00E9414028A818823A1F49E012F5E8B
:100610003F4FCE010396B9010E949A02882351F4FC
:100620009E01265E3F4FCE010C96B9010E949A02B0
:10063000882329F080E491E00E94720006C081E0E6
:1006400089838DE691E00E9472008981882339F2C6
:1006500080E090E06E960FB6F894DEBF0FBECDBF7F
:10066000DF91CF911F910F91FF90EF90DF90CF908E
:060670000895F894FFCF8D
:10067600426F6E6A6F7572202120456E7472657ABC
:1006860020766F747265204C6F67696E3A0D0A00AA
:1006960020202020757365726E616D653A20000D0D
:1006A6000A2020202070617373776F72643A2000ED
:1006B6000D0A4D6175766169736520636F6D6269B8
:1006C6006E6169736F6E20757365726E616D652FED
:1006D60070617373776F72640D0A0D0A000D0A4319
:1006E6006F75636F752070696D6963686175202128
:1006F6000D0A0D0A0070696D696368617500313213
:040706003334000088
:00000001FF
