:100000000C9434000C943E000C943E000C943E0082
:100010000C943E000C943E000C943E000C943E0068
:100020000C943E000C943E000C943E000C943E0058
:100030000C943E000C943E000C943E000C943E0048
:100040000C943E000C943E000C943E000C943E0038
:100050000C943E000C943E000C943E000C943E0028
:100060000C943E000C943E0011241FBECFEFD8E04C
:10007000DEBFCDBF0E9440000C9479000C940000BC
:10008000CF93DF93CDB7DEB784E290E0FC0120810F
:1000900084E290E02260FC01208380E890E0FC0193
:1000A000208180E890E02064FC01208381E890E0DA
:1000B000FC01208181E890E02860FC01208388E831
:1000C00090E023E83EE1FC013183208381E890E069
:1000D000FC01208181E890E02460FC01208381E81C
:1000E00090E0FC01208181E890E02160FC01208308
:0600F000FFCFF894FFCFE2
:00000001FF
